:0200000460009A
:10000000464346420004015600000000010303007D
:1000100000000000000000000000000000000000E0
:1000200000000000000000000000000000000000D0
:1000300000000000000000000000000000000000C0
:1000400000000000010407000000000000000000A4
:100050000000800000000000000000000000000020
:100060000000000000000000000000000000000090
:100070000000000000000000000000000000000080
:10008000EB04180A063202260000000000000000FF
:100090000000000000000000000000000000000060
:1000A0000000000000000000000000000000000050
:1000B0000000000000000000000000000000000040
:1000C0000000000000000000000000000000000030
:1000D0000000000000000000000000000000000020
:1000E0000000000000000000000000000000000010
:1000F0000000000000000000000000000000000000
:1001000000000000000000000000000000000000EF
:1001100000000000000000000000000000000000DF
:1001200000000000000000000000000000000000CF
:1001300000000000000000000000000000000000BF
:1001400000000000000000000000000000000000AF
:10015000000000000000000000000000000000009F
:10016000000000000000000000000000000000008F
:10017000000000000000000000000000000000007F
:10018000000000000000000000000000000000006F
:10019000000000000000000000000000000000005F
:1001A000000000000000000000000000000000004F
:1001B000000000000000000000000000000000003F
:1001C000000000000000000000000000000000002F
:1001D000000000000000000000000000000000001F
:1001E000000000000000000000000000000000000F
:1001F00000000000000000000000000000000000FF
:0200000460009A
:10100000D10020410020006000000000301000608E
:1010100020100060001000600000000000000000D0
:10102000000000600000800000000000FFFFFFFFE4
:10103000D2043041CC03AC04400FC068FFFFFFFF77
:10104000400FC06CFFFFFFFF400FC070FFFFFFFFAE
:10105000400FC074FFFFFFFF400FC078FFFFFFFF8E
:10106000400FC07CFFFFFFFF400FC080FFFFFFFF6E
:10107000400D803000002001400D8100001D000067
:10108000400FC01400010D40401F801400000000FC
:10109000401F801800000000401F801C000000005E
:1010A000401F802000000000401F8024000000003E
:1010B000401F802800000000401F802C000000001E
:1010C000401F803000000000401F803400000000FE
:1010D000401F803800000000401F803C00000000DE
:1010E000401F804000000000401F804400000000BE
:1010F000401F804800000000401F804C000000009E
:10110000401F805000000000401F8054000000007D
:10111000401F805800000000401F805C000000005D
:10112000401F806000000000401F8064000000003D
:10113000401F806800000000401F806C000000001D
:10114000401F807000000000401F807400000000FD
:10115000401F807800000000401F807C00000000DD
:10116000401F808000000000401F808400000000BD
:10117000401F808800000000401F808C000000009D
:10118000401F809000000000401F8094000000007D
:10119000401F809800000000401F809C000000005D
:1011A000401F80A000000000401F80A4000000003D
:1011B000401F80A800000000401F80AC000000001D
:1011C000401F80B000000010401F80B400000000ED
:1011D000401F80B800000000401F8204000110F989
:1011E000401F8208000110F9401F820C000110F915
:1011F000401F8210000110F9401F8214000110F9F5
:10120000401F8218000110F9401F821C000110F9D4
:10121000401F8220000110F9401F8224000110F9B4
:10122000401F8228000110F9401F822C000110F994
:10123000401F8230000110F9401F8234000110F974
:10124000401F8238000110F9401F823C000110F954
:10125000401F8240000110F9401F8244000110F934
:10126000401F8248000110F9401F824C000110F914
:10127000401F8250000110F9401F8254000110F9F4
:10128000401F8258000110F9401F825C000110F9D4
:10129000401F8260000110F9401F8264000110F9B4
:1012A000401F8268000110F9401F826C000110F994
:1012B000401F8270000110F9401F8274000110F974
:1012C000401F8278000110F9401F827C000110F954
:1012D000401F8280000110F9401F8284000110F934
:1012E000401F8288000110F9401F828C000110F914
:1012F000401F8290000110F9401F8294000110F9F4
:10130000401F8298000110F9401F829C000110F9D3
:10131000401F82A0000110F9401F82A4000110F9B3
:10132000401F82A8000110F9402F000010000004A7
:10133000402F000800030524402F000C060305245D
:10134000402F00108000001B402F00148200001B63
:10135000402F00188400001B402F001C8600001B3B
:10136000402F002090000021402F0024A0000019F1
:10137000402F0028A8000017402F002CA900001BB8
:10138000402F003000000021402F0004000079A809
:10139000402F004000000F31402F004400652922FB
:1013A000402F004800010920402F004C50210A081E
:1013B000402F008000000021402F00840088888892
:1013C000402F009400000002402F00980000000011
:1013D000402F009080000000402F009CA55A000F75
:1013E000CF000C1C402F003C00000001CC00140476
:1013F000402F009080000000402F009CA55A000C58
:10140000CF000C1C402F003C00000001CC00140455
:10141000402F009080000000402F009CA55A000C37
:10142000CF000C1C402F003C00000001CC001C042D
:10143000402F00A000000033402F009080000000EB
:10144000402F009CA55A000ACF000C1C402F003CE6
:1014500000000001CC000C04402F004C50210A0970
:0200000460009A
:1020000000002220752400608D2400608F24006071
:10201000912400609324006095240060000000007B
:102020000000000000000000000000009724006095
:1020300099240060000000009B2400609D24006043
:102040009F240060A3240060A7240060AB240060EC
:10205000AF240060B3240060B7240060BB2400609C
:10206000BF240060C3240060C7240060CB2400604C
:10207000CF240060D3240060D7240060DB240060FC
:10208000DF2400605B2500605B2500605B2500604D
:10209000E3240060E7240060EB240060EF2400608C
:1020A000F3240060F7240060FB240060FF2400603C
:1020B00003250060072500600B2500600F250060E8
:1020C00013250060172500601B2500601F25006098
:1020D00023250060272500605B2500605B250060EC
:1020E0005B2500605B2500605B2500605B25006070
:1020F0005B2500605B2500605B2500605B25006060
:102100005B2500605B2500605B2500605B2500604F
:102110005B2500605B2500605B2500605B2500603F
:102120002B2500602F2500603325006037250060D7
:102130003B2500605B2500605B2500605B2500603F
:102140005B2500605B2500605B2500605B2500600F
:102150005B2500605B2500605B2500605B250060FF
:102160005B2500605B2500605B2500605B250060EF
:102170005B2500605B2500605B2500605B250060DF
:102180005B2500605B2500605B2500605B250060CF
:102190005B2500605B2500605B2500605B250060BF
:1021A0005B2500605B2500603F25006043250060E3
:1021B0005B2500605B2500605B2500605B2500609F
:1021C0005B2500605B2500605B2500605B2500608F
:1021D0005B2500605B2500605B2500605B2500607F
:1021E0005B2500605B2500605B2500605B2500606F
:1021F000472500605B2500604B2500604F2500608F
:102200005B2500605B25006053250060572500605A
:102210005B2500605B2500605B2500605B2500603E
:102220005B2500605B2500605B2500605B2500602E
:102230005B2500605B2500605B2500605B2500601E
:102240005B2500605B2500605B2500605B2500600E
:102250005B2500605B2500605B2500605B250060FE
:102260005B2500605B2500605B2500605B250060EE
:102270005B2500605B2500605B2500605B250060DE
:102280005B2500605B2500605B2500605B250060CE
:102290005B2500605B2500605B2500605B250060BE
:1022A0005B2500605B2500605B2500605B250060AE
:1022B0005B2500605B2500605B2500605B2500609E
:1022C0005B2500605B2500605B2500605B2500608E
:1022D0005B2500605B2500605B2500605B2500607E
:1022E0005B2500605B2500605B2500605B2500606E
:1022F0005B2500605B2500605B2500605B2500605E
:102300005B2500605B2500605B2500605B2500604D
:102310005B2500605B2500605B2500605B2500603D
:102320005B2500605B2500605B2500605B2500602D
:102330005B2500605B2500605B2500605B2500601D
:102340005B2500605B2500605B2500605B2500600D
:102350005B2500605B2500605B2500605B250060FD
:102360005B2500605B2500605B2500605B250060ED
:102370005B2500605B2500605B2500605B250060DD
:102380005B2500605B2500605B2500605B250060CD
:102390005B2500605B2500605B2500605B250060BD
:1023A0005B2500605B2500605B2500605B250060AD
:1023B0005B2500605B2500605B2500605B2500609D
:1023C0005B2500605B2500605B2500605B2500608D
:1023D0005B2500605B2500605B2500605B2500607D
:1023E0005B2500605B2500605B2500605B2500606D
:1023F0005B2500605B2500605B250060FFFFFFFF41
:1024000000F002F800F014F90AA090E8000C8244F1
:102410008344AAF10107DA4501D100F009F9AFF2CE
:10242000090EBAE80F0013F0010F18BFFB1A43F0B2
:102430000103184794050000C4050000103A24BFAA
:1024400078C878C1FAD8520724BF30C830C144BF19
:1024500004680C607047000000230024002500265B
:10246000103A28BF78C1FBD8520728BF30C148BFF7
:102470000B60704772B63A483A4901600A6882F3C5
:1024800008883948804762B638480047FEE7FEE7CB
:10249000FEE7FEE7FEE7FEE7FEE7FEE7FEE734487D
:1024A0000047344800473448004734480047344820
:1024B0000047344800473448004734480047344810
:1024C0000047344800473448004734480047344800
:1024D00000473448004734480047344800473448F0
:1024E00000473448004734480047344800473448E0
:1024F00000473448004734480047344800473448D0
:1025000000473448004734480047344800473448BF
:1025100000473448004734480047344800473448AF
:10252000004734480047344800473448004734489F
:10253000004734480047344800473448004734488F
:10254000004734480047344800473448004734487F
:1025500000473448004734480047344800470000EB
:1025600008ED00E000200060F92800600124006010
:102570005B2500605B2500605B2500605B250060DB
:102580005B2500605B2500605B2500605B250060CB
:102590005B2500605B2500605B2500605B250060BB
:1025A0005B2500605B2500605B2500605B250060AB
:1025B0005B250060891D0000C91E0000E51E0000AB
:1025C000011F00001D1F0000391F0000551F0000E3
:1025D000711F00005B2500605B2500605B250060CB
:1025E0005B2500605B2500605B2500605B2500606B
:1025F0005B2500605B2500605B2500605B2500605B
:102600005B2500605B2500605B2500605B2500604A
:10261000E10E0000E90E00002D1000005B250060B7
:102620005B2500605B2500605B2500605B2500602A
:1026300040F20D4CC0F2000C604740F22D4CC0F24D
:10264000000C604710B50023234C236000BF00BF7F
:1026500000BFBFF34F8F00BF00BF00BF231F18682C
:10266000C0F34E3100BFC0F3C90200BF43F6E073B0
:1026700003EA41134FF0404404EA82742343174CA9
:10268000236000BF00BF131EA2F10102EED10B1E9A
:10269000A1F10101E7D100BF00BF00BFBFF34F8F21
:1026A00000BF00BF00BF0C4B703B1B6843F480337E
:1026B000094C703C236000BF00BF00BFBFF34F8FC9
:1026C00000BF00BF00BF00BF00BF00BFBFF36F8FE0
:1026D00000BF00BF00BF10BD84ED00E060EF00E070
:1026E00000BF00BF00BFBFF34F8F00BF00BF00BFE0
:1026F00000BF00BF00BFBFF36F8F00BF00BF00BFB0
:1027000000201449086000BF00BF00BFBFF34F8F17
:1027100000BF00BF00BF00BF00BF00BFBFF36F8F8F
:1027200000BF00BF00BF0C48006840F400300A49F9
:10273000086000BF00BF00BFBFF34F8F00BF00BFE6
:1027400000BF00BF00BF00BFBFF36F8F00BF00BF5F
:1027500000BF704750EF00E014ED00E02DE9F041BC
:102760006048406900F00070002841D05D488069F1
:1027700000F4405048B1B0F5805F21D0B0F5005F63
:1027800020D0B0F5405F27D127E05748006900F41A
:10279000803048B154480069C0F3813008B95348CB
:1027A00000E0002004460AE04F48006900F0020003
:1027B00008B1162000E014204C4900FB01F40EE0A3
:1027C0004A4C0CE04848006BC0F3813008B94748D8
:1027D00000E00020044600BF00BF002400BF00BF8F
:1027E00040484069C0F3C260401CB4FBF0F46EE0A6
:1027F0003D48006800F4803048B13B480068C0F3B1
:10280000813008B9394800E00020064606E0364825
:10281000006800F07F003549484346083248006BA5
:1028200000F4803048B13048006BC0F3813008B903
:102830002E4800E0002005460AE02B48006B00F01F
:10284000010008B1162000E01420284900FB01F522
:102850002548D0F860C025482349096DA0FB0170C8
:102860000146624600233846FFF7E7FE45191D483A
:10287000806900F4402048B1B0F5802F08D0B0F551
:10288000002F0FD0B0F5402F1ED115E02C461DE0D3
:1028900017480068C0F30540B5FBF0F000EBC0003E
:1028A000440013E01248006800F03F00B5FBF0F070
:1028B00000EBC000440009E00A48006900F007008E
:1028C000401CB6FBF0F401E0002400BF00BF054847
:1028D0004069C0F38220401CB4FBF0F00549086059
:1028E000BDE8F08100C00F4000800D4000366E0151
:1028F00000810D401C00202010B52D48006840F4D8
:1029000070002B4908602B48008920F001002949FC
:1029100008812948008920F00100274908812548BD
:10292000008800F0040028B12248008820F004004C
:10293000204908802048008800F0040028B11E4883
:10294000008820F004001C4908801C481C4948608D
:102950004FF6FF7088600846006820F0800040F065
:10296000200008604FF0E020006900F0010038B15D
:102970004FF0E020006920F001004FF0E0210861F5
:102980000B487438006800F40030B0F5003F01D007
:10299000FFF7A6FE06487438006800F48030B0F5F2
:1029A000803F01D0FFF74EFE00F00CF810BD000094
:1029B00088ED00E000800B4000000D4020C528D9C4
:1029C00000C00B4070470000F829006000040000C0
:1029D000E82D00003C240060E0570060000020204B
:1029E000680000003C240060485800606800202017
:1029F000901B0000582400601FB502F00BFE1FBDA5
:102A000010B510BDDFF80CD0FFF7F6FF02F07EFC2A
:102A100000F034F90000222003B4FFF7F1FF03BCFB
:102A200000F01EF953EA020C00F069802DE9F04B2A
:102A30004FF00006002B1FBFB3FA83F503FA05F42D
:102A400024FA05F65E4012BF1643B2FA82F502FA86
:102A500005F4C5F120051EBF22FA05FC44EA0C046A
:102A6000203556EA044C4FEA144418BF641C4FF05A
:102A700000084FF00009904271EB030C39D3002994
:102A800019BFB1FA81F701FA07F6B0FA80F700FA38
:102A900007F6C7F120071EBF20FA07FC46EA0C061E
:102AA0002037B6FBF4FCA7EB0507103F07F01F0B20
:102AB000CBF120060CFA0BFB2CFA06F644BFB3460A
:102AC0000026202FA4BF5E464FF0000B5BEA060CE9
:102AD00008BF4FF0010B19EB0B09ABFB027C48EB75
:102AE0000608C01B06FB02CC0BFB03CC71EB0C01F0
:102AF000C1E70B46024641464846BDE8F08B13B598
:102B00004FF000004FF00001AFF30080BDE81C4023
:102B1000704700000EB5054614460E4613A000F09F
:102B20008DF8284600F08AF816A000F087F83046A5
:102B300000F084F815A000F081F800218DF80B104A
:102B40000A210DF10A008DF80A1008E094FBF1F259
:102B500001FB124294FBF1F4303200F8012D002CFD
:102B6000F4DC00F06BF800F05EF800002A2A2A205E
:102B7000617373657274696F6E206661696C6564F8
:102B80003A2000002C2066696C6520002C206C69BE
:102B90006E6520004FF000020429C0F0128010F092
:102BA000030C00F01B80CCF1040CBCF1020F18BF29
:102BB00000F8012BA8BF20F8022BA1EB0C0100F0BC
:102BC0000DB85FEAC17C24BF00F8012B00F8012B8F
:102BD00048BF00F8012B70474FF0000200B51346C4
:102BE00094469646203922BFA0E80C50A0E80C502D
:102BF000B1F12001BFF4F7AF090728BFA0E80C50DE
:102C000048BF0CC05DF804EB890028BF40F8042BD6
:102C100008BF704748BF20F8022B11F0804F18BF43
:102C200000F8012B704710B5002000F01FF8FFF7E7
:102C3000E7FEBDE81040012000F012B810B50446D0
:102C400002E0641C00F004F820780028F9D110BDDF
:102C500008B569468DF800000320ABBE08BD000032
:102C600001491820ABBEFEE72600020010B500F0B7
:102C700013F8BDE8104000F00AB8704710B50446DC
:102C8000AFF300802046BDE81040FFF7C5BE002826
:102C900001D0FFF7E5BF704710B5002102A000F09A
:102CA00013F8012010BD0000534947414252543AE5
:102CB0002041626E6F726D616C207465726D696E19
:102CC0006174696F6E00000070B505460C460A20FD
:102CD00000E06D1CFFF7BCFF35B128780028F8D163
:102CE00002E0641CFFF7B4FF14B120780028F8D18B
:102CF000BDE870400A20FFF7ABBF42F25D7CC6F230
:102D0000000C60472DE9F04104460E46270A04F006
:102D10001F08062F00D805E040F2D73208A10EA008
:102D2000FFF7F8FE0F4800EB87052868032101FA3A
:102D300008F1884306FA08F108432860BDE8F081ED
:102D40002E2E5C46534C4C49425C66736C5F636C40
:102D50006F636B2E68000000696E646578203C3DEF
:102D60002036000068C00F404FF4805001490867CA
:102D70007047000000800D404FF48050014908600A
:102D800070470000E0800D40002001490862704754
:102D900000800D404FF480500149086070470000EA
:102DA000A0800D400146C8B2054A8058C1F34C329C
:102DB000C1F304239A401040C1F30422D04070476D
:102DC00000C00F400448006800F0100008B103483C
:102DD000704703480068FBE770820D4000366E01C3
:102DE000400020202DE9FF478146834BD3E9002096
:102DF000D3E9021301AC0BC4009280494846C0F3EA
:102E00000B428A5800F01F070123BB401A400AB149
:102E1000012200E000221AB9002004B0BDE8F087CA
:102E2000764FC846C8F30B403858C0F3813010B90C
:102E3000FFF7C8FF00E0002004467048C9F30B41CB
:102E40004158C1F3004109B12046E6E76C49A9EBBE
:102E50000100894545D00DDCB9F10D0F16D0A9F55B
:102E600080100D3890B3B0F5801F70D0B0F5001F02
:102E70006ED112E0B0F5401F6DD0B0F5E00F69D013
:102E8000A0F5E00008380028F2D1A3E05B48006814
:102E900000F07F0060434408AAE05848D0F860C0C2
:102EA000006DA4FB0071624600233846FFF7BAFDAF
:102EB00005465248006B00F0010010B11620444353
:102EC00002E004EB840084002C4491E0FFE74B48CF
:102ED000006900F0020008B1162000E0142044430D
:102EE00086E04648006F00F07F0A44489030D0F8F2
:102EF00000C04248D0F88000A4FB00700146624642
:102F000000233846FFF78EFD054604FB0A543B4874
:102F1000006F00F4C01018B1B0F5002F04D101E02B
:102F2000A40802E0640800E000BF00BF3548006864
:102F300035490840B0F5004F04D04942084418B95B
:102F4000A40802E0640800E000BF00BF50E043E0D6
:102F50004CE000E036E02948A030006800F07F0A2D
:102F60002648D0F8C0C0B0300068A4FB007001460D
:102F7000624600233846FFF755FD054604FB0A5418
:102F80001E48D0F8A00000F4C01018B1B0F5002F12
:102F900004D101E0A40802E0640800E000BF00BF23
:102FA0001848006800F04040B0F1404F03D0B0F145
:102FB000804F04D101E0A40802E0640800E000BFF3
:102FC00000BF15E00F489038006800F0030A5DF874
:102FD0002A400DE00D4C0BE00848006A00F00200AA
:102FE00008B1162000E01420444301E0002400BF93
:102FF00000BF204611E700003431000000800D4082
:103000000D00700070810D400080800040787D01CF
:103010001449096821F4404141F4803102794FF4A8
:10302000404303EA823211430E4A11601146096897
:1030300041F27F02914341F40051027802F07F0295
:103040001143084A116000BF0649096801F00041B8
:103050000029F9D00349096821F48031014A11603F
:103060007047000000800D4070B50A4601460B4CC9
:103070002468CE00BF25B54024EA0503CD00802496
:10308000AC401C43064DC5F8004102F03F04CD00A2
:10309000AC401C43014D2C6070BD000000810D4010
:1030A00000800D401449096B21F4404141F4803106
:1030B000027B4FF4404303EA823211430E4A11630C
:1030C0001146096B41F20102914341F4005102782B
:1030D00002F001021143084A116300BF0649096B5F
:1030E00001F000410029F9D00349096B21F4803136
:1030F000014A11637047000000800D4070B50A4618
:1031000001460B4C2468CE00BF25B54024EA0503D8
:10311000CD008024AC401C43054DF03DC5F8F04087
:1031200002F03F04CD00AC401C43014D2C6070BD4B
:10313000F0800D401449096921F4404141F4803187
:1031400042784FF4404303EA823211430E4A116140
:103150001146096921F0020141F44151027802232C
:1031600003EA42021143084A116100BF0649096996
:1031700001F000410029F9D00349096921F48031A7
:10318000014A11617047000000800D4070B504468F
:103190000E463F2000EA9465E0B215494158C4F359
:1031A0004C30C4F30422904021EA0000C4F304220E
:1031B00006FA02F1C4F34C32C4F304239A401140DE
:1031C0000843E1B20A4A8850202D00D805E040F2B9
:1031D000B53208A10DA0FFF79DFC202D07D000BF40
:1031E0000348806C0121A94008400028F8D170BD37
:1031F00000C00F402E2E5C46534C4C49425C667317
:103200006C5F636C6F636B2E68000000627573798E
:103210005368696674203C3D2043434D5F4E4F5FC9
:10322000425553595F5741495400000070B5044658
:103230000E463F2000EA9465E0B216494158C4F3B7
:103240004C30C4F30422904021EA0000C4F304226D
:1032500006FA02F1C4F34C32C4F304239A4011403D
:103260000843E1B20B4A8850202D00D806E040F216
:10327000B532094901F11800FFF74CFC202D07D0A9
:1032800000BF0448806C0121A94008400028F8D103
:1032900070BD000000C00F401C0E000070B5044659
:1032A0000E463F2000EA9465E0B215494158C4F348
:1032B0004C30C4F30422904021EA0000C4F30422FD
:1032C00006FA02F1C4F34C32C4F304239A401140CD
:1032D0000843E1B20A4A8850202D00D805E040F2A8
:1032E000B53208490848FFF715FC202D07D000BF6C
:1032F0000348806C0121A94008400028F8D170BD26
:1033000000C00F40881E0000C00E000070B50446CB
:103310000E463F2000EA9465E0B215494158C4F3D7
:103320004C30C4F30422904021EA0000C4F304228C
:1033300006FA02F1C4F34C32C4F304239A4011405C
:103340000843E1B20A4A8850202D00D805E04FF426
:10335000647208A10DA0FFF7DDFB202D07D000BF90
:103360000348806C0121A94008400028F8D170BDB5
:1033700000C00F402E2E5C46534C4C49425C667395
:103380006C5F636C6F636B2E68000000627573790D
:103390005368696674203C3D2043434D5F4E4F5F48
:1033A000425553595F5741495400000070B50446D7
:1033B0000E463F2000EA9465E0B215494158C4F337
:1033C0004C30C4F30422904021EA0000C4F30422EC
:1033D00006FA02F1C4F34C32C4F304239A401140BC
:1033E0000843E1B20A4A8850202D00D805E04FF486
:1033F000647208A10DA0FFF78DFB202D07D000BF40
:103400000348806C0121A94008400028F8D170BD14
:1034100000C00F402E2E5C46534C4C49425C6673F4
:103420006C5F636C6F636B2E68000000627573796C
:103430005368696674203C3D2043434D5F4E4F5FA7
:10344000425553595F5741495400000070B5044636
:103450000E463F2000EA9465E0B215494158C4F396
:103460004C30C4F30422904021EA0000C4F304224B
:1034700006FA02F1C4F34C32C4F304239A4011401B
:103480000843E1B20A4A8850202D00D805E04FF4E5
:103490006472084908A0FFF73DFB202D07D000BF4C
:1034A0000348806C0121A94008400028F8D170BD74
:1034B00000C00F40881E000062757379536869660A
:1034C00074203C3D2043434D5F4E4F5F425553595E
:1034D0005F5741495400000010B500F005F810BDD9
:1034E00010B500F001F810BD10B500240FE0094838
:1034F00050F8240048B1074B53F82410064B53F8FA
:103500002400064B53F824209047601CC4B2022CC0
:10351000EDDB10BD48002020500020205800202066
:1035200070B505460C46002640F60A00044044B338
:1035300004F4006010B141F6593611E004F00800BF
:1035400010B141F65A360BE004F0020010B141F61A
:103550005B3604E0E1220CA111A0FFF7DBFA00BF0B
:1035600000BF68692043686100BFD5F8BC0040F027
:103570000100C5F8BC00D5F8B80040F00100C5F85E
:10358000B800304670BD00002E2E5C46534C4C49AE
:10359000425C66736C5F666C65787370692E63005D
:1035A00066616C7365000000F0B50446012527686C
:1035B000C7F3011636B1012E05D0022E04D0032E1A
:1035C0000AD103E000BF00BF012506E00F790FB16B
:1035D000012500E0002500E000BF00BF15B14FF459
:1035E00080701BE0DFF838C00F68674501D3792091
:1035F00014E08F7C4FF47A7C17FB0CF34B27B3FB62
:10360000F7F2C2EB021707EB87079F4200D2521C6A
:103610004FF4FC4707EA422747F48070F0BD0000F2
:1036200000E1F50510B503480168034800F061FBAF
:1036300010BD00006000202000802A400146D1F823
:10364000E00000F0020030B1D1F8E00000F001002D
:1036500008B1012070470020FCE710B504460020A7
:1036600020706070A0700120E070002020716071F7
:10367000A0714FF6FF702081FF20A0720820E07239
:1036800020730020A0730021E173FF2121744FF605
:10369000FF71618220212175182104F11600FFF7C6
:1036A00079FA00200AE04FF4807200EB400304F145
:1036B000160101EB43014A80411CC8B20428F2DB29
:1036C000002184F82E1084F82F1084F8301084F82C
:1036D000311084F8321010BD70B50546002406E0A4
:1036E000094850F82400A84200D102E0641C002CD4
:1036F000F6D000BF04B904E08F2204A109A0FFF7AF
:1037000009FA204670BD0000443100002E2E5C46B0
:10371000534C4C49425C66736C5F666C65787370A1
:10372000692E6300696E7374616E6365203C204688
:10373000534C5F464541545552455F534F435F4696
:103740004C45585350495F434F554E5400000000BC
:103750002DE9FC5F05460C46002600272846FFF7AA
:10376000BBFF7E4931F91080C146032001904FEA2A
:10377000192B09F01F000090BBF1060F00D805E0DF
:1037800040F2D73276A17CA0FFF7C4F97D4800EB68
:103790008B0ADAF80000032200998A409043DDE9A1
:1037A000002191400843CAF8000000BF00BF28680C
:1037B00020F002002860284600F002FA207830212C
:1037C00001EA0010E1784FF4805202EA0131084327
:1037D000A17A4FF47F0202EA01410843217C1202E0
:1037E00002EA0161084361784FF4804202EA8131C4
:1037F00008432179D21002EAC1210843A17892003E
:1038000002EA41310843A17B802202EAC111084348
:10381000E17B402202EA81110843861C2E60618A06
:103820002089000461F30F0006466E60AE685648BA
:103830000640207D4FF07F4101EA0060617952032C
:1038400002EAC1410843A179121102EAC1310843D9
:1038500094F82E10121102EAC12108430643AE600B
:10386000EE6826F0780694F82F00402101EA8010D7
:1038700094F83010202202EA4111084394F83110E4
:10388000102202EA0111084394F83210082202EAD9
:10389000C10108430643EE60002738E005F120002F
:1038A00050F827603948064007EB470104F116003D
:1038B00000EB410000794FF0004101EAC07107EBD5
:1038C000470204F1160010F812004FF0407202EAAD
:1038D0000060084307EB470204F1160101EB4201C7
:1038E00049784FF4702202EA0141084307EB47028E
:1038F00004F1160101EB42018978C90640EA116022
:10390000064305F1200040F82760781CC7B2042F59
:10391000C4DB55F8B80F20F03C002860207BC117AD
:1039200000EB5171C910491E3C2202EA81012A684C
:1039300011432960686820F03C006860E07AC11794
:1039400000EB5171C910491E3C2202EA81016A68EC
:1039500011436960B83DBDE8FC9F00004A3100009A
:103960002E2E5C46534C4C49425C66736C5F636C14
:103970006F636B2E68000000696E646578203C3DC3
:103980002036000068C00F40FF77F70000FFF07C92
:103990002DE9F04704460F461546D4F8B800C0F3A9
:1039A000830000F101084FF00009002657E04FEABC
:1039B000C800A84212D80AE051462046FFF7B0FDE1
:1039C0008146B9F1000F02D04846BDE8F087D4F82F
:1039D00014A00AF020000028EED010E009E0616990
:1039E0002046FFF79DFD8146B9F1000F01D0484602
:1039F000EBE7D4F8F000C0B2B5EBC00FEFD86169C7
:103A00002046FFF78DFD8146B9F1000F01D04846F1
:103A1000DBE74FEAC800A8420FD8002605E004F50E
:103A2000807050F8260001C7761C4FEA4800B0426B
:103A3000F5D8082000FB18550DE0002605E004F538
:103A4000807050F8260001C7761C012000EB95001D
:103A5000B042F4D80025606940F020006061002D7C
:103A6000A5D14846B1E700002DE9F04104460D46D6
:103A7000164600274FEA660800BF2046FFF7DEFD26
:103A80000028FAD0002104F1600040F82810A9684D
:103A900040F82610E889474901EA0040297B4FF4A5
:103AA000004202EAC1310843297C4FF4787202EAED
:103AB00041110843697C01F01F010843E97C4FF480
:103AC000F04202EAC1210843297D4FF4806202EAF4
:103AD0008121084304F1700141F8260004F18000BF
:103AE00050F8267034480740687E4FF0E04101EA04
:103AF0000070698B314A02EA014108430743A87DFF
:103B000060B1687D4FF4706101EA0020A97D491E13
:103B10004FF4604202EA413108430743287E48B12E
:103B2000E87D00F00F00297E491EE02202EA4111E3
:103B30000843074304F1800040F8267029462046D8
:103B4000FFF732FD04F1C00141F82800287F30B1B1
:103B5000D4F8940020F00100C4F8940005E0D4F8F3
:103B6000940040F00100C4F89400B8F1000F0DD1AA
:103B700054F8940F20F0040020602068297F04226C
:103B800002EA8101084344F894090CE054F8940FC8
:103B900020F0080020602068297F082202EAC10185
:103BA000084344F89409206820F002002060BDE832
:103BB000F08100000000FFFF1F1000800000FF0FD9
:103BC000016841F00101016000BF016801F00101DD
:103BD0000029FAD17047000070B504460D4605B1C2
:103BE00005E04FF4377206A10BA0FEF793FF40F6F5
:103BF0006B0021698143216100BF0020286070BDF6
:103C00002E2E5C46534C4C49425C66736C5F666C6E
:103C100065787370692E630068616E646C6500007E
:103C20002DE9F04105460C4600260027217905F1D3
:103C3000800050F8210040F00041227905F1800019
:103C400040F82210403555F82C0C40F01E0045F885
:103C50002C0C20682866E86F40F00100E867A86F28
:103C600040F00100A867403D6079022805D06079E6
:103C7000032802D06079012801D1A08986B2A079F9
:103C80004FF4702101EA0040E179491E4FF0E062F3
:103C900002EA01610843064345F8A46FE86840F072
:103CA0000100E860A43D6079032802D06079012812
:103CB00006D12846D4E9021200F012F9074608E0BE
:103CC0006079022805D12846D4E90212FFF760FE88
:103CD000074600BF2846FFF7B1FC0028FAD06079FC
:103CE00020B969692846FFF71BFC07463846BDE83E
:103CF000F0812DE9F04705460C4600266869C7B2F9
:103D000039462846FFF70CFC8246BAF1000F0FD067
:103D1000206968B121462846FFF75EFF206928B177
:103D2000524621462846D4E904C3E047BDE8F0875F
:103D300007F0200000283BD02068022838D1D5F8B1
:103D4000B800C0F3830000F101094FEAC901A0687F
:103D5000884215D3002609E005F5807050F826103A
:103D60006268101D60601160701CC6B24FEA4900A5
:103D7000B042F1DC0821A06801FB1900A06013E04B
:103D8000002609E005F5807050F826106268101DC5
:103D900060601160701CC6B20121A06801EB900048
:103DA000B042EFD80020A060686940F02000686150
:103DB00007F0010078B1686940F0010068612146B0
:103DC0002846FFF709FF206928B10022214628462E
:103DD000D4E904C3E04707F04000E8B320680128B5
:103DE0003AD1A068C0B3D5F8BC00C0F3830000F19D
:103DF00001084FEAC801A068884215D3002609E0EF
:103E00006168081D6060096805F5C07040F82610FB
:103E1000701CC6B24FEA4800B042F1DC0821A0682D
:103E200001FB1800A06013E0002609E06168081D8E
:103E30006060096805F5C07040F82610701CC6B2B5
:103E40000121A06801EB9000B042EFD80020A060F3
:103E5000686940F04000686100BF67E72DE9F047FE
:103E600004460D4616469946402D00D205E040F224
:103E7000A51211A116A0FEF74DFE002700BF204697
:103E8000FFF7DCFB0028FAD01448A0610220E061B3
:103E900004F5007000EB8508EFB204E001CE48F8AD
:103EA000040B781CC7B24F45F8D30C48A061012021
:103EB000E061BDE8F08700002E2E5C46534C4C4973
:103EC000425C66736C5F666C65787370692E630024
:103ED000696E646578203C2036345500F05AF05AFB
:103EE0002DE9F04704460E461746D4F8BC00C0F34F
:103EF000830000F101084FF0000A002537E000BF01
:103F0000D4F8149009F040000028F9D04946204622
:103F1000FFF706FB8246BAF1000F02D05046BDE81B
:103F2000F0874FEAC800B8420FD8002505E002CE5E
:103F300004F5C07040F825106D1C4FEA4800A842F7
:103F4000F5D8082000FB18770DE0002505E002CE2B
:103F500004F5C07040F825106D1C012000EB97009F
:103F6000A842F4D80027606940F040006061002F4B
:103F7000C5D15046D3E700007FB50446002500F0C8
:103F800069F900F05DF92003009000208DF804002D
:103F90008DF8050001208DF8070005208DF806003A
:103FA00069460548FFF73CFE00B1012500F048F9DD
:103FB000284604B070BD000000802A4000B585B0DE
:103FC000002000908DF8040002208DF805000120EB
:103FD0008DF8070008208DF8060004A80290012043
:103FE000039069460348FFF71BFE0498C0B205B072
:103FF00000BD000000802A401CB518210020FFF7FA
:104000007DF803215F48FFF7D1F902215E48FFF7F1
:104010000DF900205D4903460246CDE9001001215B
:104020005B4800F092F900205849091D0346574AA1
:10403000EC32CDE9001001215548001D00F085F952
:104040000020524908310346504ACC32CDE90010D5
:1040500001214F48083000F078F900204B490C311D
:1040600003464A4AD032CDE90010012148480C30BD
:1040700000F06BF90020454910310346434AD43221
:10408000CDE9001001214248103000F05EF9002017
:104090003E49143103463D4AD832CDE90010012192
:1040A0003B48143000F051F941F2F1003749002348
:1040B0001A46CDE900100121354800F03AF941F2E5
:1040C000F1003249091D0023304AEC32CDE90010DD
:1040D00001212F48001D00F02CF941F2F1002B497D
:1040E00008310023294ACC32CDE9001001212848AB
:1040F000083000F01EF941F2F10024490C31002390
:10410000224AD032CDE90010012121480C3000F0C4
:1041100010F941F2F1001D49103100231B4AD4323D
:10412000CDE9001001211A48103000F002F941F2E7
:10413000F100164914310023144AD832CDE9001099
:1041400001211348143000F0F4F800F06DFE11481E
:10415000FFF783FA01210F4880F8301001460E481E
:10416000FFF7F6FA00220D490B48FFF77DFC3C23D0
:104170000B4A00210848FFF771FE00F06BF800F0D1
:10418000A3F81CBD1C7D00801CF70080DC831F4051
:10419000EC811F408009202000802A402000202040
:1041A000443000002DE9FF4104460D461646002725
:1041B00000F050F800F044F8009500208DF804005D
:1041C00003208DF8050001208DF8070007208DF8E9
:1041D00006000294039669460548FFF721FD00B1E9
:1041E000012700F02DF8384604B0BDE8F08100004A
:1041F00000802A4030B585B004460025012C01D14D
:104200000C2502E0022C00D10E25002000908DF834
:10421000040002208DF8050001208DF807008DF8BC
:10422000065004A802900120039069460348FFF756
:10423000F7FC0498C0B205B030BD000000802A40F1
:1042400010B500BF0120FFF7D5FF00F001000028E6
:10425000F8D110BD1FB5002000908DF804008DF836
:10426000050001208DF8070004208DF8060069463E
:104270000148FFF7D5FC1FBD00802A4070B586B00D
:1042800004460D460026012C01D10C2602E0022C2A
:1042900000D10E260595002001908DF8080003201E
:1042A0008DF8090001208DF80B008DF80A6005A833
:1042B00003900120049001A90248FFF7B1FC06B069
:1042C00070BD000000802A4010B500240220FFF7D6
:1042D00091FF044604F0020028B944F0020421468C
:1042E0000220FFF7CBFFFFF7ABFF10BD2DE9F04138
:1042F00007460E461446F0B2C0F58075AC4200DCAD
:10430000254612E02A4631463846FFF74BFFAC42BD
:1043100000D10BE02F442E44601B84B2B4F5807FA3
:1043200002DD4FF4807500E02546EBE700BFBDE8F5
:10433000F08130B5DDE9034504B1256030BD30B50D
:10434000DDE9034504B1256030BDF0B5DDE9055474
:1043500001F00706102707EA04173E43066002B182
:104360001360F0BDF0B5DDE9055401F00706102734
:1043700007EA04173E43066002B11360F0BD000077
:1043800010B5034841680348034A1268904710BDBE
:10439000D41B202000401840640020202DE9FC5F41
:1043A00007464FF0000B4FF4A36425464FF0030877
:1043B0004FEA152905F01F0AB9F1060F00D805E0EC
:1043C00040F2D7322EA134A0FEF7A4FB354800EB13
:1043D00089063068032101FA0AF1884308FA0AF1D4
:1043E0000843306000BF00BF00212F48FFF72EF8C0
:1043F00000212E48FEF752FF00202D4903460246B9
:10440000CDE9001002212B48FFF7ACFF002028491E
:10441000091D03460246CDE9001002212548001D72
:10442000FFF7A0FF41F2B000214900231A46CDE971
:10443000001002211F48FFF782FF41F2B0001C4923
:10444000091D00231A46CDE9001002211948001D5C
:10445000FFF775FF00F070FA8346174800F092F8F6
:1044600015480760002014494871C871087101207F
:10447000487408745A46114800F0ECF8BDE8FC9FF7
:104480002E2E5C46534C4C49425C66736C5F636CE9
:104490006F636B2E68000000696E646578203C3D98
:1044A0002036000068C00F402426008024E00780EA
:1044B000DC821F40EC801F40C01B202000401840C1
:1044C00010B5034881680348034A1268904710BD3D
:1044D000D41B2020008018406400202010B5034821
:1044E000C1680348034A1268904710BDD41B2020BE
:1044F00000C018406400202010B50348016903483B
:10450000034A1268904710BDD41B202000001940B8
:104510006400202010B5034841690348034A12682B
:10452000904710BDD41B202000401940640020207B
:1045300010B5034881690348034A1268904710BDCB
:10454000D41B2020008019406400202010B50348AF
:10455000C1690348034A1268904710BDD41B20204C
:1045600000C019406400202010B50348016A0348C8
:10457000034A1268904710BDD41B202000001A4047
:104580006400202010B5044604B105E04FF4F17238
:104590000BA111A0FEF7BEFA4FF4E130206000201D
:1045A00020716071A071E07120726072A072E0727F
:1045B00060732073A073E0732074607410BD0000FA
:1045C0002E2E5C46534C4C49425C66736C5F6C709B
:1045D000756172742E630000636F6E666967000018
:1045E00070B50546002406E0094850F82400A842AA
:1045F00000D102E0641C092CF6D300BF092C00D2C4
:1046000004E08E2203A109A0FEF784FA204670BDC3
:104610004C3100002E2E5C46534C4C49425C667374
:104620006C5F6C70756172742E630000696E7374D8
:10463000616E6365203C2041525241595F53495A93
:104640004528735F6C70756172744261736573297C
:10465000000000002DE9F04F85B004460D4691465C
:1046600005B104E0E42284A189A0FEF753FA28688A
:1046700000B104E0E52280A187A0FEF74BFA287A7A
:10468000042800DC04E0E7227BA189A0FEF742FABF
:10469000687A042800DC04E0E82277A194A0FEF701
:1046A00039FA286802904FF0000A0020049004278D
:1046B00031E028687843B9FBF0F01FFA80F8B8F1D0
:1046C000000F01D14FF0010807FB08F0B9FBF0F033
:1046D000039029680398A0EB010B08F101007843CF
:1046E000B9FBF0F02968081A58450BD208F101000F
:1046F0007843B9FBF0F02968A1EB000B08F1010049
:104700001FFA80F80298834504D8CDF808B0BA465D
:10471000CDF810807F1C202FCBD964212868B0FBF6
:10472000F1F000EB40010298814204D240F22150A6
:1047300005B0BDE8F08F2046FFF752FF01907C499D
:10474000019831F91000009003210098FEF7DAFA81
:1047500000BF00BFA06840F00200A060A06820F089
:104760000200A06000BF2669BAF1030F04D9BAF1B4
:10477000080F01D246F4003626F0F856AAF10100DF
:104780004FF0F85101EA006006436FF30C060498FD
:10479000C0F30C0030432061206920F000502061FC
:1047A000A06940F2177120EA01062879E97B4FF4ED
:1047B000E06202EA01210843A97B042202EA8101A6
:1047C000084306436879012807D1287910B126F4F7
:1047D000006606E046F4006603E0287908B146F07A
:1047E0001006A661206920F40056E8794FF40051C4
:1047F00001EA403030432061287A697A40EA01407A
:10480000E062A06A40F08800A062A06A40F44040E4
:10481000A062484E46F0004646F44046687B1021B0
:1048200001EA0010297B202202EA41110843616A53
:1048300008436062A87A18B1606A40F008006062BC
:10484000E87A18B1606A40F001006062A87910B19E
:1048500046F0005601E026F0005660693043606182
:10486000A669287C08B146F40026687C08B146F4A5
:104870008026A66100205BE72E2E5C46534C4C49F7
:10488000425C66736C5F6C70756172742E630000BD
:10489000636F6E6669670000636F6E6669672D3EC1
:1048A00062617564526174655F427073000000005C
:1048B00046534C5F464541545552455F4C50554117
:1048C00052545F4649464F5F53495A456E286261CC
:1048D000736529203E3D20636F6E6669672D3E74C7
:1048E000784669666F57617465726D61726B00001E
:1048F00046534C5F464541545552455F4C505541D7
:1049000052545F4649464F5F53495A456E2862618B
:10491000736529203E3D20636F6E6669672D3E7288
:10492000784669666F57617465726D61726B0000DD
:104930008231000000001F4070B51648C1B2164A0F
:104940008958C0F34C32C0F304239A401140C0F39D
:104950000422D14061B91148FEF744FA0621B0FBA8
:10496000F1F50F48FEF71EFA401CB5FBF0F40FE01E
:1049700000BF0C48006800F0100008B10A4D01E0CB
:104980000A4805680648FEF70DFA401CB5FBF0F42E
:10499000204670BD2426008000C00F400D0010008E
:1049A00024E0078070820D4000366E014000202018
:1049B00010B500BF00BF00BF00BF00BFBFF34F8FE7
:1049C00000BF00BF00BF00BF00BF00BFBFF36F8FBD
:1049D00000BF00BF00BF4D48006820F400304B49C5
:1049E000086000204A49086000BF00BF00BFBFF355
:1049F0004F8F00BF00BF00BF00BF00BF00BFBFF3AD
:104A00006F8F00BF00BF00BF00BF00F0BDF900BF47
:104A100000BF00BF00BF00BFBFF34F8F00BF00BF8C
:104A200000BF00BF00BF00BFBFF36F8F00BF00BF5C
:104A300000BF36481030006820F480303349103110
:104A4000086032488030006820F001002F49803132
:104A5000086000BF2F482D49883108602E48091D85
:104A600008602E48091F08602B48801C091D08603B
:104A70002B48091F08602B48091D08601320091FD7
:104A800008602548801C091D08601420091F086063
:104A900024481838091D08602348091F0860214868
:104AA0001838091D08602148091F08602048091DA1
:104AB00008601A48801D091F08601A481038091D2F
:104AC0000860042000BF00BF00BF00BFBFF34F8FCE
:104AD00000BF00BF00BF00BF00BF00BFBFF36F8FAC
:104AE00000BF00BF00BF40F00101084A80321160E2
:104AF00006491031096841F48031044A10321160CE
:104B000000BF00F0E1F900F02DFA10BD14ED00E057
:104B100050EF00E0100000C03900100311000080C9
:104B20001200006039000303150000201600202049
:104B3000230006032DE9F0474B484C49086000BFAD
:104B40004FF400404A49086000BF01214948FEF780
:104B5000DDFB01214848FEF7D9FB4848C06820F03A
:104B60001F0040F012004549C86000BF434800687C
:104B700000F00040B0F1004FF8D14148FEF748FA8C
:104B80004048FEF78FFA4048FEF7D4FA01213F482B
:104B9000FEF7FCFA03213E48FEF7B8FB0021364839
:104BA000FEF7B4FB00213B48FEF7F0FA03213A4838
:104BB000FEF7ECFA01213948FEF7E8FA1B21002044
:104BC000FEF752FA10210120FEF74EFA18210220BA
:104BD000FEF74AFA20210320FEF746FA0F210020B3
:104BE000FEF78CFA0D210120FEF788FA1121022030
:104BF000FEF784FA13210320FEF780FAFEF7B4F8DB
:104C0000FEF7C8F8FEF7B8F8FEF7BEF8FEF775F83D
:104C10004FF40174254603274FEA152805F01F09B4
:104C2000B8F1060F00D805E040F2D7321CA122A04F
:104C3000FDF770FF234800EB88063068032101FA76
:104C400009F1884307FA09F10843306000BF00BF4B
:104C500000211D48FEF75AFB03214FF21400FEF716
:104C600095FABDE8F087000000366E014000202074
:104C700044002020186C0080143900140000084003
:104C800028300000303000004030000010E00040CC
:104C90001872008014EA0004146800801CE0078089
:104CA0002E2E5C46534C4C49425C66736C5F636CC1
:104CB0006F636B2E68000000696E646578203C3D70
:104CC0002036000068C00F40142600802DE9F8430C
:104CD00004460D46904600200090286041466846F4
:104CE00000F054FC18B14FF0FF30BDE8F8839DF898
:104CF0000000182813D006DC012809D0022809D0AA
:104D0000042820D109E041281AD061281BD118E0DD
:104D100080261BE04FF4806618E00020E5E741465E
:104D2000684600F033FC40B99DF80000182804D113
:104D30004FF0FF3028600020D7E74FF0FF30D4E776
:104D400000BF0120D1E74FF0FF30CEE700BF9DF854
:104D500000002070012708E0E019414600F016FC31
:104D600010B14FF0FF30C0E77F1C701D8742F3D3B6
:104D70006178A07880F0FF00814202D04FF0FF30D0
:104D8000B3E72E600020B0E710B50023244C236069
:104D900000BF00BF00BFBFF34F8F00BF00BF00BF09
:104DA0001F4B703B1B6823F480331D4C703C236009
:104DB00000BF00BF00BFBFF34F8F00BF00BF00BFE9
:104DC000174B1B1F1868C0F34E3100BFC0F3C90258
:104DD00000BF43F6E07303EA41134FF0404404EA96
:104DE000827423430F4C236000BF00BF131EA2F147
:104DF0000102EED10B1EA1F10101E7D100BF00BFFE
:104E000000BFBFF34F8F00BF00BF00BF00BF00BF98
:104E100000BFBFF36F8F00BF00BF00BF10BD000019
:104E200084ED00E074EF00E010B50023244C236013
:104E300000BF00BF00BFBFF34F8F00BF00BF00BF68
:104E40001F4B703B1B6823F480331D4C703C236068
:104E500000BF00BF00BFBFF34F8F00BF00BF00BF48
:104E6000174B1B1F1868C0F34E3100BFC0F3C902B7
:104E700000BF43F6E07303EA41134FF0404404EAF5
:104E8000827423430F4C236000BF00BF131EA2F1A6
:104E90000102EED10B1EA1F10101E7D100BF00BF5D
:104EA00000BFBFF34F8F00BF00BF00BF00BF00BFF8
:104EB00000BFBFF36F8F00BF00BF00BF10BD000079
:104EC00084ED00E074EF00E010B50023234C236074
:104ED00000BF00BF00BFBFF34F8F00BF00BF00BFC8
:104EE000231F1868C0F34E3100BFC0F3C90200BFD2
:104EF00043F6E07303EA41134FF0404404EA82743E
:104F00002343174C236000BF00BF131EA2F1010210
:104F1000EED10B1EA1F10101E7D100BF00BF00BF20
:104F2000BFF34F8F00BF00BF00BF0C4B703B1B682F
:104F300043F48033094C703C236000BF00BF00BFC6
:104F4000BFF34F8F00BF00BF00BF00BF00BF00BF57
:104F5000BFF36F8F00BF00BF00BF10BD84ED00E046
:104F600060EF00E000BF00BF00BFBFF34F8F00BF86
:104F700000BF00BF00BF00BF00BFBFF36F8F00BF07
:104F800000BF00BF00201449086000BF00BF00BF81
:104F9000BFF34F8F00BF00BF00BF00BF00BF00BF07
:104FA000BFF36F8F00BF00BF00BF0C48006840F424
:104FB00000300A49086000BF00BF00BFBFF34F8F39
:104FC00000BF00BF00BF00BF00BF00BFBFF36F8FB7
:104FD00000BF00BF00BF704750EF00E014ED00E0DD
:104FE00070B502460C4600210025002310783028B9
:104FF00043D15078782802D0507858283DD1907805
:1050000008B9002070BD022130E0505C10B9236067
:1050100001252DE0505C412802DB505C46280BDD69
:10502000505C612802DB505C662805DD505C30284E
:1050300019DB505C392816DC505C302805DB505CED
:10504000392802DC505C30380AE0505C412805DB2E
:10505000505C462802DC505C373801E0505C573821
:1050600000EB031301E0002502E0491C0B29CCDB17
:1050700000BF0B2936DB002534E000212CE0505C1A
:1050800010B92360012529E0505C6B2802D0505CE8
:105090004B2805D1002903DD9B02236001251DE07B
:1050A000505C6D2802D0505C4D2805D1002903DDED
:1050B0001B052360012511E0505C302809DB505CA2
:1050C000392806DC505C303803EB830600EB4603DE
:1050D00001E0002502E0491C0B29D0DB00BF0B29B1
:1050E00000DB002528468DE710B5FFF761FCFFF7D0
:1050F00021FD4FF4E130FFF751F9FEF77DFF00BFCE
:10510000FEF75CFF1628FBD110BD00002DE9F04F23
:1051100087B0002000904FF48110774908604FF06D
:10512000000A4FF000080020019000BF0026B3469F
:105130007248076800BF4FF47A7202A96F4800688E
:10514000FFF7C4FD10B101286FD1A9E04FF00008AE
:105150000298B0F1FF3F01D070B907E0062000F0DF
:105160002FFA6FF0100007B0BDE8F08F062000F0B6
:1051700027FA4FF0010B91E0604800684078F1B2E7
:10518000884203D0152000F01BFA86E0002E5BD188
:105190005A480068C07800284FD00025574800685A
:1051A000C41C05E014F8012B28466D1C54490A5410
:1051B000207808B1FF2DF5DD002228466D1C5049EE
:1051C0000A540025641C05E014F8012B28466D1CC8
:1051D00003A90A542078202801D0102DF4DB0022E6
:1051E00028466D1C03A90A54694603A8FFF7F8FE78
:1051F00044490098884208D9182000F0E1F91820A5
:1052000000F0DEF94FF0FF30ADE74FF48110009968
:1052100000F05EF9401C48B9182000F0D1F91820C0
:1052200000F0CEF96FF012009DE742E0062000F09A
:10523000C7F9432000F0C4F92CE0062000F0C0F9C3
:105240004FF0010BDA4629E0F81C2F490860DDF821
:1052500008904FEAE97009EB907082104FF48113C7
:10526000084601682448006800F058F9002808DA68
:10527000182000F0A5F9182000F0A2F96FF0110035
:1052800071E71D480068029908441B490860062020
:1052900000F096F9761C0120019000BF00BF1CE0D1
:1052A000182000F08DF9182000F08AF96FF00F0037
:1052B00059E70198002801DD08F10108B8F1050F50
:1052C00007DD182000F07CF9182000F079F90020A3
:1052D00049E7432000F074F900BF00BFBBF1000FA5
:1052E0003FF429AF00BF00BFBAF1000F3FF41EAF7B
:1052F00000BF00BF009836E70400202018002020DF
:1053000068002020FFDF6F001400202072B6FFF736
:10531000EBFE00F0C2F810B900BF00F05FF90648DC
:1053200000F0C2F807E005A000F020F900F0A0F8B6
:10533000302800D1F1E7F6E7002010606E6F207092
:10534000726F6772616D2C20656E746572203020FB
:10535000746F20646F776E6C6F61640D0A000000DB
:1053600010B5002417A000F001F9002000F0D2F8D9
:105370004FF48110FFF7CAFE0446002C08DD1CA084
:1053800000F0F4F8254800F0F1F800F088F817E094
:1053900004F1110018B922A000F0E8F810E004F1BF
:1053A000130018B923A000F0E1F809E004F112009D
:1053B00018B925A000F0DAF802E028A000F0D6F82D
:1053C00010BD00000D0A20506C6561736520747279
:1053D000616E736D6974207468652062696E2077F0
:1053E00069746820596D6F64656D200D0A000000B6
:1053F000636D706C65746564210D0A2020090909CC
:10540000090909090909202D2D2D2D2D2D2D2D2DB1
:105410000D0A206E616D653A2000000068002020B2
:1054200061626F7274656420627920757365722E93
:105430000D0A0000666C61736820657261736520F7
:105440006572726F720D0A00666C61736820777204
:10545000697465206572726F720D0A006661696C0D
:10546000656420746F20726563656976650A0D0056
:1054700008B50020009008E06421684600F086F836
:105480009DF80000002800DD00E0F5E700BF9DF872
:10549000000008BD0146002070470020704710B58D
:1054A000002000F037F810BD31B50098FFF7F2FF8B
:1054B00058B900984468054804600099086880F36A
:1054C000088800BF01480068804738BD00002020E0
:1054D0002DE9F04104460D4600260027B04600BFE6
:1054E000B4F5000F04D81DB1C4F50000A84203D2E2
:1054F0004FF0FF30BDE8F081270B60194FEA1038FC
:105500003E4603E03046FEF737FD761C4645F9DDA2
:105510000020EFE701460020704700002DE9F04130
:1055200005460E4614461F46BD4204D305EB8400D3
:10553000B0F5000F03D94FF0FF30BDE8F081B04661
:10554000002004E018F80010074A1154401CB0F580
:10555000806FF7DB4FF6FF7000EA840229460248AD
:10556000FEF7C4FE0020E8E78005202010B50446C1
:105570000AE0207820B1207800F022F8641C03E0D3
:10558000002000F01DF810BDF3E7000010B5024642
:105590004FF4FA7001FB00F309E00848406900F499
:1055A000001020B10548C0691070002010BD181E01
:1055B000A3F10103F1D1401EF8E7000000401840BC
:1055C000014600BF0448406900F400000028F9D0FB
:1055D0000148C1610020704700401840002413E0DA
:1055E0000A48FFF7C3FFFFF743FF0446312C04D1FD
:1055F0004FF48110FFF7B4FE06E0322C04D1FFF720
:105600004EFF0348FFF750FFEAE700009431000027
:10561000002010604FF04070E1EE100A704700006B
:105620006400000000000000010000000000000015
:105630000100000000000000000000000304180842
:105640000424000000000000000000000B04180803
:105650000830042400000000000000006B0418085B
:1056600008320426000000000000000000000000D6
:105670000000000000000000000000000604000020
:1056800000000000000000000000000020041808D6
:1056900000000000000000000000000002041808E4
:1056A0000420000000000000000000003204180880
:1056B000042200000000000000000000AB041830CD
:1056C0000424000000000000000000000104042089
:1056D0000000000000000000000000003104042071
:1056E00000000000000000000000000000000000BA
:1056F0000000000000000000000000000504042479
:1057000000000000000000000000000090041830BD
:105710000424000000000000000000003504042400
:1057200000000000000000000000000040787D0143
:1057300080F0FA0200E1F5054059730700802A4025
:105740006C000A060000000000401840008018406D
:1057500000C0184000001940004019400080194066
:1057600000C0194000001A4080FF14001500160008
:105770001700180019001A001B00FFFF18051C0075
:105780000C001801020306031A050E06646F776CFD
:105790006F61642062696E2066696C6520656E7455
:1057A00065722031200D0A65786563757465206126
:1057B0007070202020202020656E746572203220B9
:1057C0000D0A2D2D2D2D2D2D2D2D2D2D2D2D2D2D4C
:1057D0002D2D2D2D2D2D2D2D2D2D2D0D0A000000C3
:1057E00000000000000000000000000000000000B9
:1057F00000000000000000006901202000A4781FC4
:10580000000E2707000000000020000000000A0032
:105810000A0A000000000002010000000000000071
:105820000000000000000000000000000000000078
:105830000000000000000000000000000000000068
:08584000000000000000000060
:040000056000240172
:00000001FF
